{
  "_format": "hh-sol-artifact-1",
  "contractName": "Bank",
  "sourceName": "contracts/Bank.sol",
  "abi": [
    {
      "inputs": [],
      "stateMutability": "nonpayable",
      "type": "constructor"
    },
    {
      "inputs": [],
      "name": "EnforcedPause",
      "type": "error"
    },
    {
      "inputs": [],
      "name": "ExpectedPause",
      "type": "error"
    },
    {
      "inputs": [],
      "name": "InsufficientBalance",
      "type": "error"
    },
    {
      "inputs": [],
      "name": "InvalidAddress",
      "type": "error"
    },
    {
      "inputs": [
        {
          "internalType": "address",
          "name": "owner",
          "type": "address"
        }
      ],
      "name": "OwnableInvalidOwner",
      "type": "error"
    },
    {
      "inputs": [
        {
          "internalType": "address",
          "name": "account",
          "type": "address"
        }
      ],
      "name": "OwnableUnauthorizedAccount",
      "type": "error"
    },
    {
      "inputs": [],
      "name": "ReentrancyGuardReentrantCall",
      "type": "error"
    },
    {
      "inputs": [],
      "name": "TransferFailed",
      "type": "error"
    },
    {
      "inputs": [],
      "name": "ZeroDeposit",
      "type": "error"
    },
    {
      "anonymous": false,
      "inputs": [
        {
          "indexed": true,
          "internalType": "address",
          "name": "from",
          "type": "address"
        },
        {
          "indexed": false,
          "internalType": "uint256",
          "name": "amount",
          "type": "uint256"
        }
      ],
      "name": "Deposit",
      "type": "event"
    },
    {
      "anonymous": false,
      "inputs": [
        {
          "indexed": true,
          "internalType": "address",
          "name": "token",
          "type": "address"
        },
        {
          "indexed": true,
          "internalType": "address",
          "name": "to",
          "type": "address"
        },
        {
          "indexed": false,
          "internalType": "uint256",
          "name": "amount",
          "type": "uint256"
        }
      ],
      "name": "ERC20Rescued",
      "type": "event"
    },
    {
      "anonymous": false,
      "inputs": [
        {
          "indexed": true,
          "internalType": "address",
          "name": "owner",
          "type": "address"
        },
        {
          "indexed": false,
          "internalType": "uint256",
          "name": "amount",
          "type": "uint256"
        }
      ],
      "name": "EmergencyWithdraw",
      "type": "event"
    },
    {
      "anonymous": false,
      "inputs": [
        {
          "indexed": true,
          "internalType": "address",
          "name": "previousOwner",
          "type": "address"
        },
        {
          "indexed": true,
          "internalType": "address",
          "name": "newOwner",
          "type": "address"
        }
      ],
      "name": "OwnershipTransferred",
      "type": "event"
    },
    {
      "anonymous": false,
      "inputs": [
        {
          "indexed": false,
          "internalType": "address",
          "name": "account",
          "type": "address"
        }
      ],
      "name": "Paused",
      "type": "event"
    },
    {
      "anonymous": false,
      "inputs": [
        {
          "indexed": true,
          "internalType": "address",
          "name": "from",
          "type": "address"
        },
        {
          "indexed": true,
          "internalType": "address",
          "name": "to",
          "type": "address"
        },
        {
          "indexed": false,
          "internalType": "uint256",
          "name": "amount",
          "type": "uint256"
        }
      ],
      "name": "TransferInternal",
      "type": "event"
    },
    {
      "anonymous": false,
      "inputs": [
        {
          "indexed": false,
          "internalType": "address",
          "name": "account",
          "type": "address"
        }
      ],
      "name": "Unpaused",
      "type": "event"
    },
    {
      "anonymous": false,
      "inputs": [
        {
          "indexed": true,
          "internalType": "address",
          "name": "from",
          "type": "address"
        },
        {
          "indexed": false,
          "internalType": "uint256",
          "name": "amount",
          "type": "uint256"
        }
      ],
      "name": "Withdraw",
      "type": "event"
    },
    {
      "stateMutability": "payable",
      "type": "fallback"
    },
    {
      "inputs": [],
      "name": "deposit",
      "outputs": [],
      "stateMutability": "payable",
      "type": "function"
    },
    {
      "inputs": [
        {
          "internalType": "uint256",
          "name": "amount",
          "type": "uint256"
        },
        {
          "internalType": "address payable",
          "name": "to",
          "type": "address"
        }
      ],
      "name": "emergencyWithdraw",
      "outputs": [],
      "stateMutability": "nonpayable",
      "type": "function"
    },
    {
      "inputs": [
        {
          "internalType": "address",
          "name": "user",
          "type": "address"
        }
      ],
      "name": "getBalance",
      "outputs": [
        {
          "internalType": "uint256",
          "name": "",
          "type": "uint256"
        }
      ],
      "stateMutability": "view",
      "type": "function"
    },
    {
      "inputs": [],
      "name": "getContractBalance",
      "outputs": [
        {
          "internalType": "uint256",
          "name": "",
          "type": "uint256"
        }
      ],
      "stateMutability": "view",
      "type": "function"
    },
    {
      "inputs": [],
      "name": "owner",
      "outputs": [
        {
          "internalType": "address",
          "name": "",
          "type": "address"
        }
      ],
      "stateMutability": "view",
      "type": "function"
    },
    {
      "inputs": [],
      "name": "pause",
      "outputs": [],
      "stateMutability": "nonpayable",
      "type": "function"
    },
    {
      "inputs": [],
      "name": "paused",
      "outputs": [
        {
          "internalType": "bool",
          "name": "",
          "type": "bool"
        }
      ],
      "stateMutability": "view",
      "type": "function"
    },
    {
      "inputs": [],
      "name": "renounceOwnership",
      "outputs": [],
      "stateMutability": "nonpayable",
      "type": "function"
    },
    {
      "inputs": [
        {
          "internalType": "address",
          "name": "token",
          "type": "address"
        },
        {
          "internalType": "address",
          "name": "to",
          "type": "address"
        },
        {
          "internalType": "uint256",
          "name": "amount",
          "type": "uint256"
        }
      ],
      "name": "rescueERC20",
      "outputs": [],
      "stateMutability": "nonpayable",
      "type": "function"
    },
    {
      "inputs": [
        {
          "internalType": "address",
          "name": "to",
          "type": "address"
        },
        {
          "internalType": "uint256",
          "name": "amount",
          "type": "uint256"
        }
      ],
      "name": "transfer",
      "outputs": [],
      "stateMutability": "nonpayable",
      "type": "function"
    },
    {
      "inputs": [
        {
          "internalType": "address",
          "name": "newOwner",
          "type": "address"
        }
      ],
      "name": "transferOwnership",
      "outputs": [],
      "stateMutability": "nonpayable",
      "type": "function"
    },
    {
      "inputs": [],
      "name": "unpause",
      "outputs": [],
      "stateMutability": "nonpayable",
      "type": "function"
    },
    {
      "inputs": [],
      "name": "version",
      "outputs": [
        {
          "internalType": "string",
          "name": "",
          "type": "string"
        }
      ],
      "stateMutability": "pure",
      "type": "function"
    },
    {
      "inputs": [
        {
          "internalType": "uint256",
          "name": "amount",
          "type": "uint256"
        }
      ],
      "name": "withdraw",
      "outputs": [],
      "stateMutability": "nonpayable",
      "type": "function"
    },
    {
      "stateMutability": "payable",
      "type": "receive"
    }
  ],
  "bytecode": "0x6080604052600a60025534801561001557600080fd5b5033600073ffffffffffffffffffffffffffffffffffffffff168173ffffffffffffffffffffffffffffffffffffffff16036100895760006040517f1e4fbdf700000000000000000000000000000000000000000000000000000000815260040161008091906101aa565b60405180910390fd5b610098816100a560201b60201c565b50600180819055506101c5565b60008060009054906101000a900473ffffffffffffffffffffffffffffffffffffffff169050816000806101000a81548173ffffffffffffffffffffffffffffffffffffffff021916908373ffffffffffffffffffffffffffffffffffffffff1602179055508173ffffffffffffffffffffffffffffffffffffffff168173ffffffffffffffffffffffffffffffffffffffff167f8be0079c531659141344cd1fd0a4f28419497f9722a3daafe3b4186f6b6457e060405160405180910390a35050565b600073ffffffffffffffffffffffffffffffffffffffff82169050919050565b600061019482610169565b9050919050565b6101a481610189565b82525050565b60006020820190506101bf600083018461019b565b92915050565b61168d806101d46000396000f3fe6080604052600436106100e15760003560e01c80638456cb591161007f578063b2118a8d11610059578063b2118a8d14610266578063d0e30db01461028f578063f2fde38b14610299578063f8b2cb4f146102c2576100f0565b80638456cb59146101fb5780638da5cb5b14610212578063a9059cbb1461023d576100f0565b806354fd4d50116100bb57806354fd4d50146101635780635c975abb1461018e5780636f9fb98a146101b9578063715018a6146101e4576100f0565b80632e1a7d4d146100fa5780632f940c70146101235780633f4ba83a1461014c576100f0565b366100f0576100ee6102ff565b005b6100f86102ff565b005b34801561010657600080fd5b50610121600480360381019061011c91906111c4565b6103f0565b005b34801561012f57600080fd5b5061014a6004803603810190610145919061124f565b6105d5565b005b34801561015857600080fd5b50610161610789565b005b34801561016f57600080fd5b5061017861079b565b604051610185919061131f565b60405180910390f35b34801561019a57600080fd5b506101a36107d8565b6040516101b0919061135c565b60405180910390f35b3480156101c557600080fd5b506101ce6107ee565b6040516101db9190611386565b60405180910390f35b3480156101f057600080fd5b506101f96107f6565b005b34801561020757600080fd5b5061021061080a565b005b34801561021e57600080fd5b5061022761081c565b60405161023491906113c2565b60405180910390f35b34801561024957600080fd5b50610264600480360381019061025f9190611409565b610845565b005b34801561027257600080fd5b5061028d60048036038101906102889190611449565b610a4a565b005b6102976102ff565b005b3480156102a557600080fd5b506102c060048036038101906102bb919061149c565b610ba1565b005b3480156102ce57600080fd5b506102e960048036038101906102e4919061149c565b610c27565b6040516102f69190611386565b60405180910390f35b610307610c70565b60003403610341576040517f56316e8700000000000000000000000000000000000000000000000000000000815260040160405180910390fd5b61034a33610cb1565b34600360003373ffffffffffffffffffffffffffffffffffffffff1673ffffffffffffffffffffffffffffffffffffffff168152602001908152602001600020600082825461039991906114f8565b925050819055503373ffffffffffffffffffffffffffffffffffffffff167fe1fffcc4923d04b559f4d29a8bfc6cda04eb5b0d3c460751c2402c5c5cc9109c346040516103e69190611386565b60405180910390a2565b6103f8610ee2565b610400610c70565b61040933610cb1565b80600360003373ffffffffffffffffffffffffffffffffffffffff1673ffffffffffffffffffffffffffffffffffffffff168152602001908152602001600020541015610482576040517ff4d678b800000000000000000000000000000000000000000000000000000000815260040160405180910390fd5b80600360003373ffffffffffffffffffffffffffffffffffffffff1673ffffffffffffffffffffffffffffffffffffffff16815260200190815260200160002060008282546104d1919061152c565b9250508190555060003373ffffffffffffffffffffffffffffffffffffffff16826040516104fe90611591565b60006040518083038185875af1925050503d806000811461053b576040519150601f19603f3d011682016040523d82523d6000602084013e610540565b606091505b505090508061057b576040517f90b8ec1800000000000000000000000000000000000000000000000000000000815260040160405180910390fd5b3373ffffffffffffffffffffffffffffffffffffffff167f884edad9ce6fa2440d8a54cc123490eb96d2768479d49ff9c7366125a9424364836040516105c19190611386565b60405180910390a2506105d2610f28565b50565b6105dd610f31565b6105e5610ee2565b600073ffffffffffffffffffffffffffffffffffffffff168173ffffffffffffffffffffffffffffffffffffffff160361064b576040517fe6c4247b00000000000000000000000000000000000000000000000000000000815260040160405180910390fd5b60004790508281101561068a576040517ff4d678b800000000000000000000000000000000000000000000000000000000815260040160405180910390fd5b60008273ffffffffffffffffffffffffffffffffffffffff16846040516106b090611591565b60006040518083038185875af1925050503d80600081146106ed576040519150601f19603f3d011682016040523d82523d6000602084013e6106f2565b606091505b505090508061072d576040517f90b8ec1800000000000000000000000000000000000000000000000000000000815260040160405180910390fd5b8273ffffffffffffffffffffffffffffffffffffffff167f5fafa99d0643513820be26656b45130b01e1c03062e1266bf36f88cbd3bd9695856040516107739190611386565b60405180910390a25050610785610f28565b5050565b610791610f31565b610799610fb8565b565b60606040518060400160405280600b81526020017f42616e6b2076312e302e30000000000000000000000000000000000000000000815250905090565b60008060149054906101000a900460ff16905090565b600047905090565b6107fe610f31565b610808600061101a565b565b610812610f31565b61081a6110de565b565b60008060009054906101000a900473ffffffffffffffffffffffffffffffffffffffff16905090565b61084d610c70565b61085633610cb1565b61085f82610cb1565b600073ffffffffffffffffffffffffffffffffffffffff168273ffffffffffffffffffffffffffffffffffffffff16036108c5576040517fe6c4247b00000000000000000000000000000000000000000000000000000000815260040160405180910390fd5b80600360003373ffffffffffffffffffffffffffffffffffffffff1673ffffffffffffffffffffffffffffffffffffffff16815260200190815260200160002054101561093e576040517ff4d678b800000000000000000000000000000000000000000000000000000000815260040160405180910390fd5b80600360003373ffffffffffffffffffffffffffffffffffffffff1673ffffffffffffffffffffffffffffffffffffffff1681526020019081526020016000206000828254039250508190555080600360008473ffffffffffffffffffffffffffffffffffffffff1673ffffffffffffffffffffffffffffffffffffffff16815260200190815260200160002060008282546109da91906114f8565b925050819055508173ffffffffffffffffffffffffffffffffffffffff163373ffffffffffffffffffffffffffffffffffffffff167f2eaf0105ce634980cd36a1b268deebe6ebc3d5e0554e514b32e8d02169df91a783604051610a3e9190611386565b60405180910390a35050565b610a52610f31565b600073ffffffffffffffffffffffffffffffffffffffff168273ffffffffffffffffffffffffffffffffffffffff1603610ab8576040517fe6c4247b00000000000000000000000000000000000000000000000000000000815260040160405180910390fd5b8273ffffffffffffffffffffffffffffffffffffffff1663a9059cbb83836040518363ffffffff1660e01b8152600401610af39291906115a6565b6020604051808303816000875af1158015610b12573d6000803e3d6000fd5b505050506040513d601f19601f82011682018060405250810190610b3691906115fb565b508173ffffffffffffffffffffffffffffffffffffffff168373ffffffffffffffffffffffffffffffffffffffff167f8bbfbb5d7fcacf6fc74005cdede0635561638507f576c95f7f294c22141be2e583604051610b949190611386565b60405180910390a3505050565b610ba9610f31565b600073ffffffffffffffffffffffffffffffffffffffff168173ffffffffffffffffffffffffffffffffffffffff1603610c1b5760006040517f1e4fbdf7000000000000000000000000000000000000000000000000000000008152600401610c1291906113c2565b60405180910390fd5b610c248161101a565b50565b6000600360008373ffffffffffffffffffffffffffffffffffffffff1673ffffffffffffffffffffffffffffffffffffffff168152602001908152602001600020549050919050565b610c786107d8565b15610caf576040517fd93c066500000000000000000000000000000000000000000000000000000000815260040160405180910390fd5b565b610cb9610c70565b6000600460008373ffffffffffffffffffffffffffffffffffffffff1673ffffffffffffffffffffffffffffffffffffffff1681526020019081526020016000205403610d495742600460008373ffffffffffffffffffffffffffffffffffffffff1673ffffffffffffffffffffffffffffffffffffffff16815260200190815260200160002081905550610edf565b6000600460008373ffffffffffffffffffffffffffffffffffffffff1673ffffffffffffffffffffffffffffffffffffffff1681526020019081526020016000205442610d96919061152c565b9050600081118015610de757506000600360008473ffffffffffffffffffffffffffffffffffffffff1673ffffffffffffffffffffffffffffffffffffffff16815260200190815260200160002054115b15610edd57600063bbf81e0082600254600360008773ffffffffffffffffffffffffffffffffffffffff1673ffffffffffffffffffffffffffffffffffffffff16815260200190815260200160002054020281610e4757610e46611628565b5b04905080600360008573ffffffffffffffffffffffffffffffffffffffff1673ffffffffffffffffffffffffffffffffffffffff168152602001908152602001600020600082825401925050819055505042600460008473ffffffffffffffffffffffffffffffffffffffff1673ffffffffffffffffffffffffffffffffffffffff168152602001908152602001600020819055505b505b50565b600260015403610f1e576040517f3ee5aeb500000000000000000000000000000000000000000000000000000000815260040160405180910390fd5b6002600181905550565b60018081905550565b610f39611141565b73ffffffffffffffffffffffffffffffffffffffff16610f5761081c565b73ffffffffffffffffffffffffffffffffffffffff1614610fb657610f7a611141565b6040517f118cdaa7000000000000000000000000000000000000000000000000000000008152600401610fad91906113c2565b60405180910390fd5b565b610fc0611149565b60008060146101000a81548160ff0219169083151502179055507f5db9ee0a495bf2e6ff9c91a7834c1ba4fdd244a5e8aa4e537bd38aeae4b073aa611003611141565b60405161101091906113c2565b60405180910390a1565b60008060009054906101000a900473ffffffffffffffffffffffffffffffffffffffff169050816000806101000a81548173ffffffffffffffffffffffffffffffffffffffff021916908373ffffffffffffffffffffffffffffffffffffffff1602179055508173ffffffffffffffffffffffffffffffffffffffff168173ffffffffffffffffffffffffffffffffffffffff167f8be0079c531659141344cd1fd0a4f28419497f9722a3daafe3b4186f6b6457e060405160405180910390a35050565b6110e6610c70565b6001600060146101000a81548160ff0219169083151502179055507f62e78cea01bee320cd4e420270b5ea74000d11b0c9f74754ebdbfc544b05a25861112a611141565b60405161113791906113c2565b60405180910390a1565b600033905090565b6111516107d8565b611187576040517f8dfc202b00000000000000000000000000000000000000000000000000000000815260040160405180910390fd5b565b600080fd5b6000819050919050565b6111a18161118e565b81146111ac57600080fd5b50565b6000813590506111be81611198565b92915050565b6000602082840312156111da576111d9611189565b5b60006111e8848285016111af565b91505092915050565b600073ffffffffffffffffffffffffffffffffffffffff82169050919050565b600061121c826111f1565b9050919050565b61122c81611211565b811461123757600080fd5b50565b60008135905061124981611223565b92915050565b6000806040838503121561126657611265611189565b5b6000611274858286016111af565b92505060206112858582860161123a565b9150509250929050565b600081519050919050565b600082825260208201905092915050565b60005b838110156112c95780820151818401526020810190506112ae565b60008484015250505050565b6000601f19601f8301169050919050565b60006112f18261128f565b6112fb818561129a565b935061130b8185602086016112ab565b611314816112d5565b840191505092915050565b6000602082019050818103600083015261133981846112e6565b905092915050565b60008115159050919050565b61135681611341565b82525050565b6000602082019050611371600083018461134d565b92915050565b6113808161118e565b82525050565b600060208201905061139b6000830184611377565b92915050565b60006113ac826111f1565b9050919050565b6113bc816113a1565b82525050565b60006020820190506113d760008301846113b3565b92915050565b6113e6816113a1565b81146113f157600080fd5b50565b600081359050611403816113dd565b92915050565b600080604083850312156114205761141f611189565b5b600061142e858286016113f4565b925050602061143f858286016111af565b9150509250929050565b60008060006060848603121561146257611461611189565b5b6000611470868287016113f4565b9350506020611481868287016113f4565b9250506040611492868287016111af565b9150509250925092565b6000602082840312156114b2576114b1611189565b5b60006114c0848285016113f4565b91505092915050565b7f4e487b7100000000000000000000000000000000000000000000000000000000600052601160045260246000fd5b60006115038261118e565b915061150e8361118e565b9250828201905080821115611526576115256114c9565b5b92915050565b60006115378261118e565b91506115428361118e565b925082820390508181111561155a576115596114c9565b5b92915050565b600081905092915050565b50565b600061157b600083611560565b91506115868261156b565b600082019050919050565b600061159c8261156e565b9150819050919050565b60006040820190506115bb60008301856113b3565b6115c86020830184611377565b9392505050565b6115d881611341565b81146115e357600080fd5b50565b6000815190506115f5816115cf565b92915050565b60006020828403121561161157611610611189565b5b600061161f848285016115e6565b91505092915050565b7f4e487b7100000000000000000000000000000000000000000000000000000000600052601260045260246000fdfea264697066735822122085d232324258353cd84bdedcc4247aeb73c703c452c2e93be8e0f91b440e354f64736f6c634300081c0033",
  "linkReferences": {},
  "deployedLinkReferences": {}
}